{
  "contractName": "DocumentReg",
  "abi": [
    {
      "constant": true,
      "inputs": [],
      "name": "createTime",
      "outputs": [
        {
          "name": "",
          "type": "uint256"
        }
      ],
      "payable": false,
      "stateMutability": "view",
      "type": "function"
    },
    {
      "constant": false,
      "inputs": [],
      "name": "renounceOwnership",
      "outputs": [],
      "payable": false,
      "stateMutability": "nonpayable",
      "type": "function"
    },
    {
      "constant": true,
      "inputs": [],
      "name": "owner",
      "outputs": [
        {
          "name": "",
          "type": "address"
        }
      ],
      "payable": false,
      "stateMutability": "view",
      "type": "function"
    },
    {
      "constant": false,
      "inputs": [
        {
          "name": "_newOwner",
          "type": "address"
        }
      ],
      "name": "transferOwnership",
      "outputs": [],
      "payable": false,
      "stateMutability": "nonpayable",
      "type": "function"
    },
    {
      "anonymous": false,
      "inputs": [
        {
          "indexed": false,
          "name": "timestamp",
          "type": "uint256"
        },
        {
          "indexed": false,
          "name": "token",
          "type": "address"
        }
      ],
      "name": "_InitializeDocumentReg",
      "type": "event"
    },
    {
      "anonymous": false,
      "inputs": [
        {
          "indexed": true,
          "name": "docId",
          "type": "bytes32"
        },
        {
          "indexed": false,
          "name": "timestamp",
          "type": "uint256"
        },
        {
          "indexed": true,
          "name": "applicant",
          "type": "address"
        },
        {
          "indexed": false,
          "name": "count",
          "type": "uint256"
        }
      ],
      "name": "_RegisterNewDocument",
      "type": "event"
    },
    {
      "anonymous": false,
      "inputs": [
        {
          "indexed": true,
          "name": "docId",
          "type": "bytes32"
        },
        {
          "indexed": false,
          "name": "timestamp",
          "type": "uint256"
        },
        {
          "indexed": true,
          "name": "applicant",
          "type": "address"
        }
      ],
      "name": "_UpdateDocument",
      "type": "event"
    },
    {
      "anonymous": false,
      "inputs": [
        {
          "indexed": true,
          "name": "docId",
          "type": "bytes32"
        },
        {
          "indexed": false,
          "name": "timestamp",
          "type": "uint256"
        },
        {
          "indexed": false,
          "name": "pageView",
          "type": "uint256"
        }
      ],
      "name": "_ConfirmPageView",
      "type": "event"
    },
    {
      "anonymous": false,
      "inputs": [
        {
          "indexed": false,
          "name": "timestamp",
          "type": "uint256"
        },
        {
          "indexed": false,
          "name": "pageView",
          "type": "uint256"
        },
        {
          "indexed": false,
          "name": "pageViewSquare",
          "type": "uint256"
        }
      ],
      "name": "_ConfirmTotalPageView",
      "type": "event"
    },
    {
      "anonymous": false,
      "inputs": [
        {
          "indexed": true,
          "name": "docId",
          "type": "bytes32"
        },
        {
          "indexed": false,
          "name": "deposit",
          "type": "uint256"
        },
        {
          "indexed": true,
          "name": "applicant",
          "type": "address"
        }
      ],
      "name": "_VoteOnDocument",
      "type": "event"
    },
    {
      "anonymous": false,
      "inputs": [
        {
          "indexed": true,
          "name": "docId",
          "type": "bytes32"
        },
        {
          "indexed": false,
          "name": "deposit",
          "type": "uint256"
        },
        {
          "indexed": true,
          "name": "applicant",
          "type": "address"
        },
        {
          "indexed": false,
          "name": "timestamp",
          "type": "uint256"
        }
      ],
      "name": "_UpdateVoteOnDocument",
      "type": "event"
    },
    {
      "anonymous": false,
      "inputs": [
        {
          "indexed": true,
          "name": "docId",
          "type": "bytes32"
        },
        {
          "indexed": false,
          "name": "reward",
          "type": "uint256"
        },
        {
          "indexed": true,
          "name": "applicant",
          "type": "address"
        }
      ],
      "name": "_ClaimAuthorReward",
      "type": "event"
    },
    {
      "anonymous": false,
      "inputs": [
        {
          "indexed": true,
          "name": "docId",
          "type": "bytes32"
        },
        {
          "indexed": false,
          "name": "reward",
          "type": "uint256"
        },
        {
          "indexed": true,
          "name": "applicant",
          "type": "address"
        }
      ],
      "name": "_ClaimCuratorReward",
      "type": "event"
    },
    {
      "anonymous": false,
      "inputs": [
        {
          "indexed": true,
          "name": "previousOwner",
          "type": "address"
        }
      ],
      "name": "OwnershipRenounced",
      "type": "event"
    },
    {
      "anonymous": false,
      "inputs": [
        {
          "indexed": true,
          "name": "previousOwner",
          "type": "address"
        },
        {
          "indexed": true,
          "name": "newOwner",
          "type": "address"
        }
      ],
      "name": "OwnershipTransferred",
      "type": "event"
    },
    {
      "constant": false,
      "inputs": [
        {
          "name": "_token",
          "type": "address"
        },
        {
          "name": "_author",
          "type": "address"
        },
        {
          "name": "_curator",
          "type": "address"
        },
        {
          "name": "_utility",
          "type": "address"
        }
      ],
      "name": "init",
      "outputs": [],
      "payable": false,
      "stateMutability": "nonpayable",
      "type": "function"
    },
    {
      "constant": false,
      "inputs": [
        {
          "name": "_docId",
          "type": "bytes32"
        }
      ],
      "name": "register",
      "outputs": [],
      "payable": false,
      "stateMutability": "nonpayable",
      "type": "function"
    },
    {
      "constant": false,
      "inputs": [
        {
          "name": "_addr",
          "type": "address"
        },
        {
          "name": "_docId",
          "type": "bytes32"
        },
        {
          "name": "_timestamp",
          "type": "uint256"
        }
      ],
      "name": "update",
      "outputs": [],
      "payable": false,
      "stateMutability": "nonpayable",
      "type": "function"
    },
    {
      "constant": true,
      "inputs": [
        {
          "name": "_docId",
          "type": "bytes32"
        }
      ],
      "name": "contains",
      "outputs": [
        {
          "name": "",
          "type": "bool"
        }
      ],
      "payable": false,
      "stateMutability": "view",
      "type": "function"
    },
    {
      "constant": true,
      "inputs": [
        {
          "name": "_docId",
          "type": "bytes32"
        }
      ],
      "name": "getAuthorByKey",
      "outputs": [
        {
          "name": "",
          "type": "address"
        }
      ],
      "payable": false,
      "stateMutability": "view",
      "type": "function"
    },
    {
      "constant": true,
      "inputs": [
        {
          "name": "_docId",
          "type": "bytes32"
        }
      ],
      "name": "getCreateTimeByKey",
      "outputs": [
        {
          "name": "",
          "type": "uint256"
        }
      ],
      "payable": false,
      "stateMutability": "view",
      "type": "function"
    },
    {
      "constant": true,
      "inputs": [],
      "name": "count",
      "outputs": [
        {
          "name": "",
          "type": "uint256"
        }
      ],
      "payable": false,
      "stateMutability": "view",
      "type": "function"
    },
    {
      "constant": true,
      "inputs": [],
      "name": "getDocuments",
      "outputs": [
        {
          "name": "",
          "type": "bytes32[]"
        }
      ],
      "payable": false,
      "stateMutability": "view",
      "type": "function"
    },
    {
      "constant": false,
      "inputs": [
        {
          "name": "_date",
          "type": "uint256"
        },
        {
          "name": "_totalPageView",
          "type": "uint256"
        },
        {
          "name": "_totalPageViewSquare",
          "type": "uint256"
        }
      ],
      "name": "confirmTotalPageView",
      "outputs": [],
      "payable": false,
      "stateMutability": "nonpayable",
      "type": "function"
    },
    {
      "constant": true,
      "inputs": [
        {
          "name": "_date",
          "type": "uint256"
        }
      ],
      "name": "getTotalPageView",
      "outputs": [
        {
          "name": "",
          "type": "uint256"
        }
      ],
      "payable": false,
      "stateMutability": "view",
      "type": "function"
    },
    {
      "constant": true,
      "inputs": [
        {
          "name": "_date",
          "type": "uint256"
        }
      ],
      "name": "getTotalPageViewSquare",
      "outputs": [
        {
          "name": "",
          "type": "uint256"
        }
      ],
      "payable": false,
      "stateMutability": "view",
      "type": "function"
    },
    {
      "constant": false,
      "inputs": [
        {
          "name": "_docId",
          "type": "bytes32"
        },
        {
          "name": "_date",
          "type": "uint256"
        },
        {
          "name": "_pageView",
          "type": "uint256"
        }
      ],
      "name": "confirmPageView",
      "outputs": [],
      "payable": false,
      "stateMutability": "nonpayable",
      "type": "function"
    },
    {
      "constant": true,
      "inputs": [
        {
          "name": "_docId",
          "type": "bytes32"
        },
        {
          "name": "_date",
          "type": "uint256"
        }
      ],
      "name": "getPageView",
      "outputs": [
        {
          "name": "",
          "type": "uint256"
        }
      ],
      "payable": false,
      "stateMutability": "view",
      "type": "function"
    },
    {
      "constant": true,
      "inputs": [
        {
          "name": "_addr",
          "type": "address"
        },
        {
          "name": "_docId",
          "type": "bytes32"
        }
      ],
      "name": "determineAuthorReward",
      "outputs": [
        {
          "name": "",
          "type": "uint256"
        }
      ],
      "payable": false,
      "stateMutability": "view",
      "type": "function"
    },
    {
      "constant": false,
      "inputs": [
        {
          "name": "_docId",
          "type": "bytes32"
        }
      ],
      "name": "claimAuthorReward",
      "outputs": [],
      "payable": false,
      "stateMutability": "nonpayable",
      "type": "function"
    },
    {
      "constant": true,
      "inputs": [
        {
          "name": "_addr",
          "type": "address"
        },
        {
          "name": "_docId",
          "type": "bytes32"
        }
      ],
      "name": "estimateCuratorReward",
      "outputs": [
        {
          "name": "",
          "type": "uint256"
        }
      ],
      "payable": false,
      "stateMutability": "view",
      "type": "function"
    },
    {
      "constant": true,
      "inputs": [
        {
          "name": "_docId",
          "type": "bytes32"
        }
      ],
      "name": "determineCuratorReward",
      "outputs": [
        {
          "name": "",
          "type": "uint256"
        }
      ],
      "payable": false,
      "stateMutability": "view",
      "type": "function"
    },
    {
      "constant": false,
      "inputs": [
        {
          "name": "_docId",
          "type": "bytes32"
        }
      ],
      "name": "claimCuratorReward",
      "outputs": [],
      "payable": false,
      "stateMutability": "nonpayable",
      "type": "function"
    },
    {
      "constant": false,
      "inputs": [
        {
          "name": "_docId",
          "type": "bytes32"
        },
        {
          "name": "_deposit",
          "type": "uint256"
        }
      ],
      "name": "voteOnDocument",
      "outputs": [],
      "payable": false,
      "stateMutability": "nonpayable",
      "type": "function"
    },
    {
      "constant": false,
      "inputs": [
        {
          "name": "_addr",
          "type": "address"
        },
        {
          "name": "_docId",
          "type": "bytes32"
        },
        {
          "name": "_deposit",
          "type": "uint256"
        },
        {
          "name": "_timestamp",
          "type": "uint256"
        }
      ],
      "name": "updateVoteOnDocument",
      "outputs": [],
      "payable": false,
      "stateMutability": "nonpayable",
      "type": "function"
    },
    {
      "constant": true,
      "inputs": [
        {
          "name": "_addr",
          "type": "address"
        },
        {
          "name": "_docId",
          "type": "bytes32"
        },
        {
          "name": "_timestamp",
          "type": "uint256"
        }
      ],
      "name": "getDepositOnUserDocument",
      "outputs": [
        {
          "name": "",
          "type": "uint256"
        }
      ],
      "payable": false,
      "stateMutability": "view",
      "type": "function"
    },
    {
      "constant": true,
      "inputs": [
        {
          "name": "_docId",
          "type": "bytes32"
        },
        {
          "name": "_timestamp",
          "type": "uint256"
        }
      ],
      "name": "getDepositOnDocument",
      "outputs": [
        {
          "name": "",
          "type": "uint256"
        }
      ],
      "payable": false,
      "stateMutability": "view",
      "type": "function"
    },
    {
      "constant": true,
      "inputs": [
        {
          "name": "_addr",
          "type": "address"
        },
        {
          "name": "_docId",
          "type": "bytes32"
        },
        {
          "name": "_timestamp",
          "type": "uint256"
        }
      ],
      "name": "getWithdrawOnUserDocument",
      "outputs": [
        {
          "name": "",
          "type": "uint256"
        }
      ],
      "payable": false,
      "stateMutability": "view",
      "type": "function"
    },
    {
      "constant": true,
      "inputs": [
        {
          "name": "_docId",
          "type": "bytes32"
        },
        {
          "name": "_timestamp",
          "type": "uint256"
        }
      ],
      "name": "getWithdrawOnDocument",
      "outputs": [
        {
          "name": "",
          "type": "uint256"
        }
      ],
      "payable": false,
      "stateMutability": "view",
      "type": "function"
    }
  ],
  "bytecode": "0x6080604052336000806101000a81548173ffffffffffffffffffffffffffffffffffffffff021916908373ffffffffffffffffffffffffffffffffffffffff1602179055506156dc806100536000396000f30060806040526004361061016a576000357c0100000000000000000000000000000000000000000000000000000000900463ffffffff16806305a9589f1461016f57806306552ff3146101be57806306661abd1461026157806309547eec1461028c57806314766128146102e75780631d1a696d146103225780631dd5bca31461036b5780633a7247c6146103d05780634c9d31ca1461043557806357835e011461048457806361dcd7ab146104b55780636bb05847146104e0578063715018a6146105115780637ca36b94146105285780638a6668d2146105695780638da5cb5b146105d857806393cbcec31461062f578063999d6bf4146106745780639d10bcda146106b9578063aa55a67e14610708578063caac83e41461076d578063e1fa8e84146107b2578063e26564f9146107e3578063ef2d870014610852578063f26b4482146108be578063f2cf4754146108ff578063f2fde38b14610970578063f93eab33146109b3575b600080fd5b34801561017b57600080fd5b506101a86004803603810190808035600019169060200190929190803590602001909291905050506109f4565b6040518082815260200191505060405180910390f35b3480156101ca57600080fd5b5061025f600480360381019080803573ffffffffffffffffffffffffffffffffffffffff169060200190929190803573ffffffffffffffffffffffffffffffffffffffff169060200190929190803573ffffffffffffffffffffffffffffffffffffffff169060200190929190803573ffffffffffffffffffffffffffffffffffffffff169060200190929190505050610ada565b005b34801561026d57600080fd5b506102766111b5565b6040518082815260200191505060405180910390f35b34801561029857600080fd5b506102e5600480360381019080803573ffffffffffffffffffffffffffffffffffffffff1690602001909291908035600019169060200190929190803590602001909291905050506111c2565b005b3480156102f357600080fd5b50610320600480360381019080803560001916906020019092919080359060200190929190505050611456565b005b34801561032e57600080fd5b5061035160048036038101908080356000191690602001909291905050506117ae565b604051808215151515815260200191505060405180910390f35b34801561037757600080fd5b506103ba600480360381019080803573ffffffffffffffffffffffffffffffffffffffff16906020019092919080356000191690602001909291905050506117d9565b6040518082815260200191505060405180910390f35b3480156103dc57600080fd5b5061041f600480360381019080803573ffffffffffffffffffffffffffffffffffffffff1690602001909291908035600019169060200190929190505050612005565b6040518082815260200191505060405180910390f35b34801561044157600080fd5b5061046e6004803603810190808035600019169060200190929190803590602001909291905050506126d3565b6040518082815260200191505060405180910390f35b34801561049057600080fd5b506104b3600480360381019080803560001916906020019092919050505061273a565b005b3480156104c157600080fd5b506104ca6134bd565b6040518082815260200191505060405180910390f35b3480156104ec57600080fd5b5061050f60048036038101908080356000191690602001909291905050506134c3565b005b34801561051d57600080fd5b50610526613d91565b005b34801561053457600080fd5b5061055360048036038101908080359060200190929190505050613e93565b6040518082815260200191505060405180910390f35b34801561057557600080fd5b506105c2600480360381019080803573ffffffffffffffffffffffffffffffffffffffff169060200190929190803560001916906020019092919080359060200190929190505050613ebf565b6040518082815260200191505060405180910390f35b3480156105e457600080fd5b506105ed613fda565b604051808273ffffffffffffffffffffffffffffffffffffffff1673ffffffffffffffffffffffffffffffffffffffff16815260200191505060405180910390f35b34801561063b57600080fd5b5061065e6004803603810190808035600019169060200190929190505050613fff565b6040518082815260200191505060405180910390f35b34801561068057600080fd5b506106a36004803603810190808035600019169060200190929190505050614944565b6040518082815260200191505060405180910390f35b3480156106c557600080fd5b506106f2600480360381019080803560001916906020019092919080359060200190929190505050614999565b6040518082815260200191505060405180910390f35b34801561071457600080fd5b5061076b600480360381019080803573ffffffffffffffffffffffffffffffffffffffff16906020019092919080356000191690602001909291908035906020019092919080359060200190929190505050614a7f565b005b34801561077957600080fd5b506107b060048036038101908080356000191690602001909291908035906020019092919080359060200190929190505050614d0f565b005b3480156107be57600080fd5b506107e16004803603810190808035600019169060200190929190505050614e1b565b005b3480156107ef57600080fd5b5061083c600480360381019080803573ffffffffffffffffffffffffffffffffffffffff169060200190929190803560001916906020019092919080359060200190929190505050615230565b6040518082815260200191505060405180910390f35b34801561085e57600080fd5b5061086761534b565b6040518080602001828103825283818151815260200191508051906020019060200280838360005b838110156108aa57808201518184015260208101905061088f565b505050509050019250505060405180910390f35b3480156108ca57600080fd5b506108e9600480360381019080803590602001909291905050506153a7565b6040518082815260200191505060405180910390f35b34801561090b57600080fd5b5061092e60048036038101908080356000191690602001909291905050506153d3565b604051808273ffffffffffffffffffffffffffffffffffffffff1673ffffffffffffffffffffffffffffffffffffffff16815260200191505060405180910390f35b34801561097c57600080fd5b506109b1600480360381019080803573ffffffffffffffffffffffffffffffffffffffff169060200190929190505050615448565b005b3480156109bf57600080fd5b506109f26004803603810190808035906020019092919080359060200190929190803590602001909291905050506154af565b005b6000600860009054906101000a900473ffffffffffffffffffffffffffffffffffffffff1673ffffffffffffffffffffffffffffffffffffffff1663a975a50084846040518363ffffffff167c010000000000000000000000000000000000000000000000000000000002815260040180836000191660001916815260200182815260200192505050602060405180830381600087803b158015610a9757600080fd5b505af1158015610aab573d6000803e3d6000fd5b505050506040513d6020811015610ac157600080fd5b8101908080519060200190929190505050905092915050565b6000809054906101000a900473ffffffffffffffffffffffffffffffffffffffff1673ffffffffffffffffffffffffffffffffffffffff163373ffffffffffffffffffffffffffffffffffffffff16141515610b3557600080fd5b60008473ffffffffffffffffffffffffffffffffffffffff1614158015610b9457506000600560009054906101000a900473ffffffffffffffffffffffffffffffffffffffff1673ffffffffffffffffffffffffffffffffffffffff16145b1515610b9f57600080fd5b60008373ffffffffffffffffffffffffffffffffffffffff1614158015610bfe57506000600760009054906101000a900473ffffffffffffffffffffffffffffffffffffffff1673ffffffffffffffffffffffffffffffffffffffff16145b1515610c0957600080fd5b60008273ffffffffffffffffffffffffffffffffffffffff1614158015610c6857506000600860009054906101000a900473ffffffffffffffffffffffffffffffffffffffff1673ffffffffffffffffffffffffffffffffffffffff16145b1515610c7357600080fd5b60008173ffffffffffffffffffffffffffffffffffffffff1614158015610cd257506000600660009054906101000a900473ffffffffffffffffffffffffffffffffffffffff1673ffffffffffffffffffffffffffffffffffffffff16145b1515610cdd57600080fd5b83600560006101000a81548173ffffffffffffffffffffffffffffffffffffffff021916908373ffffffffffffffffffffffffffffffffffffffff16021790555080600660006101000a81548173ffffffffffffffffffffffffffffffffffffffff021916908373ffffffffffffffffffffffffffffffffffffffff16021790555082600760006101000a81548173ffffffffffffffffffffffffffffffffffffffff021916908373ffffffffffffffffffffffffffffffffffffffff160217905550600760009054906101000a900473ffffffffffffffffffffffffffffffffffffffff1673ffffffffffffffffffffffffffffffffffffffff1663f09a4016600560009054906101000a900473ffffffffffffffffffffffffffffffffffffffff16600660009054906101000a900473ffffffffffffffffffffffffffffffffffffffff166040518363ffffffff167c0100000000000000000000000000000000000000000000000000000000028152600401808373ffffffffffffffffffffffffffffffffffffffff1673ffffffffffffffffffffffffffffffffffffffff1681526020018273ffffffffffffffffffffffffffffffffffffffff1673ffffffffffffffffffffffffffffffffffffffff16815260200192505050600060405180830381600087803b158015610ed557600080fd5b505af1158015610ee9573d6000803e3d6000fd5b5050505081600860006101000a81548173ffffffffffffffffffffffffffffffffffffffff021916908373ffffffffffffffffffffffffffffffffffffffff160217905550600860009054906101000a900473ffffffffffffffffffffffffffffffffffffffff1673ffffffffffffffffffffffffffffffffffffffff1663f09a4016600560009054906101000a900473ffffffffffffffffffffffffffffffffffffffff16600660009054906101000a900473ffffffffffffffffffffffffffffffffffffffff166040518363ffffffff167c0100000000000000000000000000000000000000000000000000000000028152600401808373ffffffffffffffffffffffffffffffffffffffff1673ffffffffffffffffffffffffffffffffffffffff1681526020018273ffffffffffffffffffffffffffffffffffffffff1673ffffffffffffffffffffffffffffffffffffffff16815260200192505050600060405180830381600087803b15801561106357600080fd5b505af1158015611077573d6000803e3d6000fd5b50505050600660009054906101000a900473ffffffffffffffffffffffffffffffffffffffff1673ffffffffffffffffffffffffffffffffffffffff1663c03812226040518163ffffffff167c0100000000000000000000000000000000000000000000000000000000028152600401602060405180830381600087803b15801561110157600080fd5b505af1158015611115573d6000803e3d6000fd5b505050506040513d602081101561112b57600080fd5b81019080805190602001909291905050506009819055507f8742e3e96e789a57b576070034c2cdb8980c6be1567aabcac37dbe7130db927960095485604051808381526020018273ffffffffffffffffffffffffffffffffffffffff1673ffffffffffffffffffffffffffffffffffffffff1681526020019250505060405180910390a150505050565b6000600280549050905090565b6000809054906101000a900473ffffffffffffffffffffffffffffffffffffffff1673ffffffffffffffffffffffffffffffffffffffff163373ffffffffffffffffffffffffffffffffffffffff1614151561121d57600080fd5b60006001600084600019166000191681526020019081526020016000206001015414156112775760028290806001815401808255809150509060018203906000526020600020016000909192909190915090600019169055505b60408051908101604052808473ffffffffffffffffffffffffffffffffffffffff1681526020018281525060016000846000191660001916815260200190815260200160002060008201518160000160006101000a81548173ffffffffffffffffffffffffffffffffffffffff021916908373ffffffffffffffffffffffffffffffffffffffff16021790555060208201518160010155905050600760009054906101000a900473ffffffffffffffffffffffffffffffffffffffff1673ffffffffffffffffffffffffffffffffffffffff1663fc2ce2af8385846040518463ffffffff167c01000000000000000000000000000000000000000000000000000000000281526004018084600019166000191681526020018373ffffffffffffffffffffffffffffffffffffffff1673ffffffffffffffffffffffffffffffffffffffff1681526020018281526020019350505050600060405180830381600087803b1580156113e657600080fd5b505af11580156113fa573d6000803e3d6000fd5b505050508273ffffffffffffffffffffffffffffffffffffffff1682600019167f0b94e4ec34698b1da6ae21b109ae0c268dfd3436981a7e949de44a8df4a112f5836040518082815260200191505060405180910390a3505050565b60008111151561146557600080fd5b6000600860009054906101000a900473ffffffffffffffffffffffffffffffffffffffff1673ffffffffffffffffffffffffffffffffffffffff166361dcd7ab6040518163ffffffff167c0100000000000000000000000000000000000000000000000000000000028152600401602060405180830381600087803b1580156114ed57600080fd5b505af1158015611501573d6000803e3d6000fd5b505050506040513d602081101561151757600080fd5b81019080805190602001909291905050501415151561153557600080fd5b600560009054906101000a900473ffffffffffffffffffffffffffffffffffffffff1673ffffffffffffffffffffffffffffffffffffffff166323b872dd3330846040518463ffffffff167c0100000000000000000000000000000000000000000000000000000000028152600401808473ffffffffffffffffffffffffffffffffffffffff1673ffffffffffffffffffffffffffffffffffffffff1681526020018373ffffffffffffffffffffffffffffffffffffffff1673ffffffffffffffffffffffffffffffffffffffff1681526020018281526020019350505050602060405180830381600087803b15801561162e57600080fd5b505af1158015611642573d6000803e3d6000fd5b505050506040513d602081101561165857600080fd5b810190808051906020019092919050505050600860009054906101000a900473ffffffffffffffffffffffffffffffffffffffff1673ffffffffffffffffffffffffffffffffffffffff166302096d833384846040518463ffffffff167c0100000000000000000000000000000000000000000000000000000000028152600401808473ffffffffffffffffffffffffffffffffffffffff1673ffffffffffffffffffffffffffffffffffffffff16815260200183600019166000191681526020018281526020019350505050600060405180830381600087803b15801561173f57600080fd5b505af1158015611753573d6000803e3d6000fd5b505050503373ffffffffffffffffffffffffffffffffffffffff1682600019167f0c75c6a0cc6b6403ea7acee71d8aa1556e09a34e8560c6f9ab5b6152bfcd8ef1836040518082815260200191505060405180910390a35050565b6000806001600084600019166000191681526020019081526020016000206001015414159050919050565b60008060008060008060008060008a73ffffffffffffffffffffffffffffffffffffffff161415151561180b57600080fd5b6000600860009054906101000a900473ffffffffffffffffffffffffffffffffffffffff1673ffffffffffffffffffffffffffffffffffffffff166361dcd7ab6040518163ffffffff167c0100000000000000000000000000000000000000000000000000000000028152600401602060405180830381600087803b15801561189357600080fd5b505af11580156118a7573d6000803e3d6000fd5b505050506040513d60208110156118bd57600080fd5b8101908080519060200190929190505050141515156118db57600080fd5b600860009054906101000a900473ffffffffffffffffffffffffffffffffffffffff1673ffffffffffffffffffffffffffffffffffffffff1663e652f4cc8b6040518263ffffffff167c0100000000000000000000000000000000000000000000000000000000028152600401808273ffffffffffffffffffffffffffffffffffffffff1673ffffffffffffffffffffffffffffffffffffffff168152602001915050602060405180830381600087803b15801561199857600080fd5b505af11580156119ac573d6000803e3d6000fd5b505050506040513d60208110156119c257600080fd5b8101908080519060200190929190505050965060008714156119e75760009750611ff8565b60009550600094505b86851015611ff4578860001916600860009054906101000a900473ffffffffffffffffffffffffffffffffffffffff1673ffffffffffffffffffffffffffffffffffffffff166332c658b18c886040518363ffffffff167c0100000000000000000000000000000000000000000000000000000000028152600401808373ffffffffffffffffffffffffffffffffffffffff1673ffffffffffffffffffffffffffffffffffffffff16815260200182815260200192505050602060405180830381600087803b158015611ac257600080fd5b505af1158015611ad6573d6000803e3d6000fd5b505050506040513d6020811015611aec57600080fd5b810190808051906020019092919050505060001916148015611c0d57506000600860009054906101000a900473ffffffffffffffffffffffffffffffffffffffff1673ffffffffffffffffffffffffffffffffffffffff1663da3605418c886040518363ffffffff167c0100000000000000000000000000000000000000000000000000000000028152600401808373ffffffffffffffffffffffffffffffffffffffff1673ffffffffffffffffffffffffffffffffffffffff16815260200182815260200192505050602060405180830381600087803b158015611bd057600080fd5b505af1158015611be4573d6000803e3d6000fd5b505050506040513d6020811015611bfa57600080fd5b8101908080519060200190929190505050145b15611fe757600860009054906101000a900473ffffffffffffffffffffffffffffffffffffffff1673ffffffffffffffffffffffffffffffffffffffff16636a34a4cb8b876040518363ffffffff167c0100000000000000000000000000000000000000000000000000000000028152600401808373ffffffffffffffffffffffffffffffffffffffff1673ffffffffffffffffffffffffffffffffffffffff16815260200182815260200192505050602060405180830381600087803b158015611cd757600080fd5b505af1158015611ceb573d6000803e3d6000fd5b505050506040513d6020811015611d0157600080fd5b81019080805190602001909291905050509350600092505b600660009054906101000a900473ffffffffffffffffffffffffffffffffffffffff1673ffffffffffffffffffffffffffffffffffffffff1663cb41501e6040518163ffffffff167c0100000000000000000000000000000000000000000000000000000000028152600401602060405180830381600087803b158015611d9f57600080fd5b505af1158015611db3573d6000803e3d6000fd5b505050506040513d6020811015611dc957600080fd5b8101908080519060200190929190505050831015611fe657611deb89856126d3565b9150611df684613e93565b9050600860009054906101000a900473ffffffffffffffffffffffffffffffffffffffff1673ffffffffffffffffffffffffffffffffffffffff16633c8740d88b878786866040518663ffffffff167c0100000000000000000000000000000000000000000000000000000000028152600401808673ffffffffffffffffffffffffffffffffffffffff1673ffffffffffffffffffffffffffffffffffffffff16815260200185815260200184815260200183815260200182815260200195505050505050602060405180830381600087803b158015611ed557600080fd5b505af1158015611ee9573d6000803e3d6000fd5b505050506040513d6020811015611eff57600080fd5b810190808051906020019092919050505086019550600660009054906101000a900473ffffffffffffffffffffffffffffffffffffffff1673ffffffffffffffffffffffffffffffffffffffff1663f733ad956040518163ffffffff167c0100000000000000000000000000000000000000000000000000000000028152600401602060405180830381600087803b158015611f9a57600080fd5b505af1158015611fae573d6000803e3d6000fd5b505050506040513d6020811015611fc457600080fd5b8101908080519060200190929190505050840193508280600101935050611d19565b5b84806001019550506119f0565b8597505b5050505050505092915050565b6000806000806000806000808973ffffffffffffffffffffffffffffffffffffffff161415151561203557600080fd5b6000600760009054906101000a900473ffffffffffffffffffffffffffffffffffffffff1673ffffffffffffffffffffffffffffffffffffffff166361dcd7ab6040518163ffffffff167c0100000000000000000000000000000000000000000000000000000000028152600401602060405180830381600087803b1580156120bd57600080fd5b505af11580156120d1573d6000803e3d6000fd5b505050506040513d60208110156120e757600080fd5b81019080805190602001909291905050501415151561210557600080fd5b600760009054906101000a900473ffffffffffffffffffffffffffffffffffffffff1673ffffffffffffffffffffffffffffffffffffffff1663bfb2290d8a8a6040518363ffffffff167c0100000000000000000000000000000000000000000000000000000000028152600401808373ffffffffffffffffffffffffffffffffffffffff1673ffffffffffffffffffffffffffffffffffffffff168152602001826000191660001916815260200192505050602060405180830381600087803b1580156121d257600080fd5b505af11580156121e6573d6000803e3d6000fd5b505050506040513d60208110156121fc57600080fd5b81019080805190602001909291905050509550600086121561222157600096506126c7565b60009450600760009054906101000a900473ffffffffffffffffffffffffffffffffffffffff1673ffffffffffffffffffffffffffffffffffffffff16638938dfc68a886040518363ffffffff167c0100000000000000000000000000000000000000000000000000000000028152600401808373ffffffffffffffffffffffffffffffffffffffff1673ffffffffffffffffffffffffffffffffffffffff16815260200182815260200192505050602060405180830381600087803b1580156122ea57600080fd5b505af11580156122fe573d6000803e3d6000fd5b505050506040513d602081101561231457600080fd5b810190808051906020019092919050505093505b600660009054906101000a900473ffffffffffffffffffffffffffffffffffffffff1673ffffffffffffffffffffffffffffffffffffffff16637ff8b20e6040518163ffffffff167c0100000000000000000000000000000000000000000000000000000000028152600401602060405180830381600087803b1580156123ae57600080fd5b505af11580156123c2573d6000803e3d6000fd5b505050506040513d60208110156123d857600080fd5b81019080805190602001909291905050508410156126c35760008414156124fc57600760009054906101000a900473ffffffffffffffffffffffffffffffffffffffff1673ffffffffffffffffffffffffffffffffffffffff1663ddb358ef8a886040518363ffffffff167c0100000000000000000000000000000000000000000000000000000000028152600401808373ffffffffffffffffffffffffffffffffffffffff1673ffffffffffffffffffffffffffffffffffffffff16815260200182815260200192505050602060405180830381600087803b1580156124be57600080fd5b505af11580156124d2573d6000803e3d6000fd5b505050506040513d60208110156124e857600080fd5b810190808051906020019092919050505093505b612505846153a7565b925061251188856126d3565b9150600760009054906101000a900473ffffffffffffffffffffffffffffffffffffffff1673ffffffffffffffffffffffffffffffffffffffff1663c5b5f0a983856040518363ffffffff167c01000000000000000000000000000000000000000000000000000000000281526004018083815260200182815260200192505050602060405180830381600087803b1580156125ac57600080fd5b505af11580156125c0573d6000803e3d6000fd5b505050506040513d60208110156125d657600080fd5b810190808051906020019092919050505085019450600660009054906101000a900473ffffffffffffffffffffffffffffffffffffffff1673ffffffffffffffffffffffffffffffffffffffff1663f733ad956040518163ffffffff167c0100000000000000000000000000000000000000000000000000000000028152600401602060405180830381600087803b15801561267157600080fd5b505af1158015612685573d6000803e3d6000fd5b505050506040513d602081101561269b57600080fd5b81019080805190602001909291905050508401905080841015156126bb57fe5b809350612328565b8496505b50505050505092915050565b600080600160008560001916600019168152602001908152602001600020600101541415151561270257600080fd5b600160008460001916600019168152602001908152602001600020600201600083815260200190815260200160002054905092915050565b60008060006060806000806000806000806000600860009054906101000a900473ffffffffffffffffffffffffffffffffffffffff1673ffffffffffffffffffffffffffffffffffffffff166361dcd7ab6040518163ffffffff167c0100000000000000000000000000000000000000000000000000000000028152600401602060405180830381600087803b1580156127d357600080fd5b505af11580156127e7573d6000803e3d6000fd5b505050506040513d60208110156127fd57600080fd5b81019080805190602001909291905050501415151561281b57600080fd5b60009a50600860009054906101000a900473ffffffffffffffffffffffffffffffffffffffff1673ffffffffffffffffffffffffffffffffffffffff16633b7aecf7338e60006040518463ffffffff167c0100000000000000000000000000000000000000000000000000000000028152600401808473ffffffffffffffffffffffffffffffffffffffff1673ffffffffffffffffffffffffffffffffffffffff16815260200183600019166000191681526020018281526020019350505050602060405180830381600087803b1580156128f557600080fd5b505af1158015612909573d6000803e3d6000fd5b505050506040513d602081101561291f57600080fd5b810190808051906020019092919050505099505b60008a121515612a5c578a806001019b5050600860009054906101000a900473ffffffffffffffffffffffffffffffffffffffff1673ffffffffffffffffffffffffffffffffffffffff16633b7aecf7338e8d6040518463ffffffff167c0100000000000000000000000000000000000000000000000000000000028152600401808473ffffffffffffffffffffffffffffffffffffffff1673ffffffffffffffffffffffffffffffffffffffff16815260200183600019166000191681526020018281526020019350505050602060405180830381600087803b158015612a1a57600080fd5b505af1158015612a2e573d6000803e3d6000fd5b505050506040513d6020811015612a4457600080fd5b81019080805190602001909291905050509950612933565b60008b1415612a6a576134af565b600098508a604051908082528060200260200182016040528015612a9d5781602001602082028038833980820191505090505b5097508a604051908082528060200260200182016040528015612acf5781602001602082028038833980820191505090505b509650600860009054906101000a900473ffffffffffffffffffffffffffffffffffffffff1673ffffffffffffffffffffffffffffffffffffffff16633b7aecf7338e60006040518463ffffffff167c0100000000000000000000000000000000000000000000000000000000028152600401808473ffffffffffffffffffffffffffffffffffffffff1673ffffffffffffffffffffffffffffffffffffffff16815260200183600019166000191681526020018281526020019350505050602060405180830381600087803b158015612ba857600080fd5b505af1158015612bbc573d6000803e3d6000fd5b505050506040513d6020811015612bd257600080fd5b81019080805190602001909291905050509950600095505b8a86101561322c5760009450600860009054906101000a900473ffffffffffffffffffffffffffffffffffffffff1673ffffffffffffffffffffffffffffffffffffffff16636a34a4cb338c6040518363ffffffff167c0100000000000000000000000000000000000000000000000000000000028152600401808373ffffffffffffffffffffffffffffffffffffffff1673ffffffffffffffffffffffffffffffffffffffff16815260200182815260200192505050602060405180830381600087803b158015612cbb57600080fd5b505af1158015612ccf573d6000803e3d6000fd5b505050506040513d6020811015612ce557600080fd5b81019080805190602001909291905050509350600092505b600660009054906101000a900473ffffffffffffffffffffffffffffffffffffffff1673ffffffffffffffffffffffffffffffffffffffff1663cb41501e6040518163ffffffff167c0100000000000000000000000000000000000000000000000000000000028152600401602060405180830381600087803b158015612d8357600080fd5b505af1158015612d97573d6000803e3d6000fd5b505050506040513d6020811015612dad57600080fd5b8101908080519060200190929190505050831015612fca57612dcf8c856126d3565b9150612dda84613e93565b9050600860009054906101000a900473ffffffffffffffffffffffffffffffffffffffff1673ffffffffffffffffffffffffffffffffffffffff16633c8740d8338c8786866040518663ffffffff167c0100000000000000000000000000000000000000000000000000000000028152600401808673ffffffffffffffffffffffffffffffffffffffff1673ffffffffffffffffffffffffffffffffffffffff16815260200185815260200184815260200183815260200182815260200195505050505050602060405180830381600087803b158015612eb957600080fd5b505af1158015612ecd573d6000803e3d6000fd5b505050506040513d6020811015612ee357600080fd5b810190808051906020019092919050505085019450600660009054906101000a900473ffffffffffffffffffffffffffffffffffffffff1673ffffffffffffffffffffffffffffffffffffffff1663f733ad956040518163ffffffff167c0100000000000000000000000000000000000000000000000000000000028152600401602060405180830381600087803b158015612f7e57600080fd5b505af1158015612f92573d6000803e3d6000fd5b505050506040513d6020811015612fa857600080fd5b8101908080519060200190929190505050840193508280600101935050612cfd565b8489019850600860009054906101000a900473ffffffffffffffffffffffffffffffffffffffff1673ffffffffffffffffffffffffffffffffffffffff16632726b506338c6040518363ffffffff167c0100000000000000000000000000000000000000000000000000000000028152600401808373ffffffffffffffffffffffffffffffffffffffff1673ffffffffffffffffffffffffffffffffffffffff16815260200182815260200192505050602060405180830381600087803b15801561309457600080fd5b505af11580156130a8573d6000803e3d6000fd5b505050506040513d60208110156130be57600080fd5b8101908080519060200190929190505050890198508988878151811015156130e257fe5b90602001906020020181815250508487878151811015156130ff57fe5b9060200190602002018181525050600860009054906101000a900473ffffffffffffffffffffffffffffffffffffffff1673ffffffffffffffffffffffffffffffffffffffff16633b7aecf7338e8d6040518463ffffffff167c0100000000000000000000000000000000000000000000000000000000028152600401808473ffffffffffffffffffffffffffffffffffffffff1673ffffffffffffffffffffffffffffffffffffffff16815260200183600019166000191681526020018281526020019350505050602060405180830381600087803b1580156131e257600080fd5b505af11580156131f6573d6000803e3d6000fd5b505050506040513d602081101561320c57600080fd5b810190808051906020019092919050505099508580600101965050612bea565b600560009054906101000a900473ffffffffffffffffffffffffffffffffffffffff1673ffffffffffffffffffffffffffffffffffffffff1663a9059cbb338b6040518363ffffffff167c0100000000000000000000000000000000000000000000000000000000028152600401808373ffffffffffffffffffffffffffffffffffffffff1673ffffffffffffffffffffffffffffffffffffffff16815260200182815260200192505050602060405180830381600087803b1580156132f157600080fd5b505af1158015613305573d6000803e3d6000fd5b505050506040513d602081101561331b57600080fd5b810190808051906020019092919050505050600095505b875186101561345b57600860009054906101000a900473ffffffffffffffffffffffffffffffffffffffff1673ffffffffffffffffffffffffffffffffffffffff1663b5c5f672338a8981518110151561338857fe5b906020019060200201518a8a8151811015156133a057fe5b906020019060200201516040518463ffffffff167c0100000000000000000000000000000000000000000000000000000000028152600401808473ffffffffffffffffffffffffffffffffffffffff1673ffffffffffffffffffffffffffffffffffffffff1681526020018381526020018281526020019350505050600060405180830381600087803b15801561343657600080fd5b505af115801561344a573d6000803e3d6000fd5b505050508580600101965050613332565b3373ffffffffffffffffffffffffffffffffffffffff168c600019167ff52a79cb351c7f71a9cb184d7e1a0c68127f783b1db70273ad6085cf4800ab688b6040518082815260200191505060405180910390a35b505050505050505050505050565b60095481565b6000806000806000806000803373ffffffffffffffffffffffffffffffffffffffff16141515156134f357600080fd5b6000600760009054906101000a900473ffffffffffffffffffffffffffffffffffffffff1673ffffffffffffffffffffffffffffffffffffffff166361dcd7ab6040518163ffffffff167c0100000000000000000000000000000000000000000000000000000000028152600401602060405180830381600087803b15801561357b57600080fd5b505af115801561358f573d6000803e3d6000fd5b505050506040513d60208110156135a557600080fd5b8101908080519060200190929190505050141515156135c357600080fd5b600760009054906101000a900473ffffffffffffffffffffffffffffffffffffffff1673ffffffffffffffffffffffffffffffffffffffff1663bfb2290d338a6040518363ffffffff167c0100000000000000000000000000000000000000000000000000000000028152600401808373ffffffffffffffffffffffffffffffffffffffff1673ffffffffffffffffffffffffffffffffffffffff168152602001826000191660001916815260200192505050602060405180830381600087803b15801561369057600080fd5b505af11580156136a4573d6000803e3d6000fd5b505050506040513d60208110156136ba57600080fd5b8101908080519060200190929190505050965060008712156136db57613d87565b3373ffffffffffffffffffffffffffffffffffffffff1688600019167f4c392ff5289c397ab3c803ffe08711686c2cc0ebf2fc6f49a409ebc3a7d992d4896040518082815260200191505060405180910390a3600760009054906101000a900473ffffffffffffffffffffffffffffffffffffffff1673ffffffffffffffffffffffffffffffffffffffff16638938dfc633896040518363ffffffff167c0100000000000000000000000000000000000000000000000000000000028152600401808373ffffffffffffffffffffffffffffffffffffffff1673ffffffffffffffffffffffffffffffffffffffff16815260200182815260200192505050602060405180830381600087803b1580156137f357600080fd5b505af1158015613807573d6000803e3d6000fd5b505050506040513d602081101561381d57600080fd5b810190808051906020019092919050505095503373ffffffffffffffffffffffffffffffffffffffff1688600019167f4c392ff5289c397ab3c803ffe08711686c2cc0ebf2fc6f49a409ebc3a7d992d4886040518082815260200191505060405180910390a3600660009054906101000a900473ffffffffffffffffffffffffffffffffffffffff1673ffffffffffffffffffffffffffffffffffffffff16637ff8b20e6040518163ffffffff167c0100000000000000000000000000000000000000000000000000000000028152600401602060405180830381600087803b15801561390957600080fd5b505af115801561391d573d6000803e3d6000fd5b505050506040513d602081101561393357600080fd5b81019080805190602001909291905050509450600093505b84861015613c32576000861415613a5f57600760009054906101000a900473ffffffffffffffffffffffffffffffffffffffff1673ffffffffffffffffffffffffffffffffffffffff1663ddb358ef33896040518363ffffffff167c0100000000000000000000000000000000000000000000000000000000028152600401808373ffffffffffffffffffffffffffffffffffffffff1673ffffffffffffffffffffffffffffffffffffffff16815260200182815260200192505050602060405180830381600087803b158015613a2157600080fd5b505af1158015613a35573d6000803e3d6000fd5b505050506040513d6020811015613a4b57600080fd5b810190808051906020019092919050505095505b848611151515613a6b57fe5b613a74866153a7565b9250613a8088876126d3565b9150600760009054906101000a900473ffffffffffffffffffffffffffffffffffffffff1673ffffffffffffffffffffffffffffffffffffffff1663c5b5f0a983856040518363ffffffff167c01000000000000000000000000000000000000000000000000000000000281526004018083815260200182815260200192505050602060405180830381600087803b158015613b1b57600080fd5b505af1158015613b2f573d6000803e3d6000fd5b505050506040513d6020811015613b4557600080fd5b810190808051906020019092919050505084019350600660009054906101000a900473ffffffffffffffffffffffffffffffffffffffff1673ffffffffffffffffffffffffffffffffffffffff1663f733ad956040518163ffffffff167c0100000000000000000000000000000000000000000000000000000000028152600401602060405180830381600087803b158015613be057600080fd5b505af1158015613bf4573d6000803e3d6000fd5b505050506040513d6020811015613c0a57600080fd5b8101908080519060200190929190505050860190508581111515613c2a57fe5b80955061394b565b600560009054906101000a900473ffffffffffffffffffffffffffffffffffffffff1673ffffffffffffffffffffffffffffffffffffffff1663a9059cbb33866040518363ffffffff167c0100000000000000000000000000000000000000000000000000000000028152600401808373ffffffffffffffffffffffffffffffffffffffff1673ffffffffffffffffffffffffffffffffffffffff16815260200182815260200192505050602060405180830381600087803b158015613cf757600080fd5b505af1158015613d0b573d6000803e3d6000fd5b505050506040513d6020811015613d2157600080fd5b8101908080519060200190929190505050503373ffffffffffffffffffffffffffffffffffffffff1688600019167f4c392ff5289c397ab3c803ffe08711686c2cc0ebf2fc6f49a409ebc3a7d992d4866040518082815260200191505060405180910390a35b5050505050505050565b6000809054906101000a900473ffffffffffffffffffffffffffffffffffffffff1673ffffffffffffffffffffffffffffffffffffffff163373ffffffffffffffffffffffffffffffffffffffff16141515613dec57600080fd5b6000809054906101000a900473ffffffffffffffffffffffffffffffffffffffff1673ffffffffffffffffffffffffffffffffffffffff167ff8df31144d9c2f0f6b59d69b8b98abd5459d07f2742c4df920b25aae33c6482060405160405180910390a260008060006101000a81548173ffffffffffffffffffffffffffffffffffffffff021916908373ffffffffffffffffffffffffffffffffffffffff160217905550565b6000808214151515613ea457600080fd5b60046000838152602001908152602001600020549050919050565b6000600860009054906101000a900473ffffffffffffffffffffffffffffffffffffffff1673ffffffffffffffffffffffffffffffffffffffff16636392eb8f8585856040518463ffffffff167c0100000000000000000000000000000000000000000000000000000000028152600401808473ffffffffffffffffffffffffffffffffffffffff1673ffffffffffffffffffffffffffffffffffffffff16815260200183600019166000191681526020018281526020019350505050602060405180830381600087803b158015613f9657600080fd5b505af1158015613faa573d6000803e3d6000fd5b505050506040513d6020811015613fc057600080fd5b810190808051906020019092919050505090509392505050565b6000809054906101000a900473ffffffffffffffffffffffffffffffffffffffff1681565b600080600080600080600080600080600860009054906101000a900473ffffffffffffffffffffffffffffffffffffffff1673ffffffffffffffffffffffffffffffffffffffff166361dcd7ab6040518163ffffffff167c0100000000000000000000000000000000000000000000000000000000028152600401602060405180830381600087803b15801561409457600080fd5b505af11580156140a8573d6000803e3d6000fd5b505050506040513d60208110156140be57600080fd5b8101908080519060200190929190505050141515156140dc57600080fd5b60009750600860009054906101000a900473ffffffffffffffffffffffffffffffffffffffff1673ffffffffffffffffffffffffffffffffffffffff16633b7aecf7338c60006040518463ffffffff167c0100000000000000000000000000000000000000000000000000000000028152600401808473ffffffffffffffffffffffffffffffffffffffff1673ffffffffffffffffffffffffffffffffffffffff16815260200183600019166000191681526020018281526020019350505050602060405180830381600087803b1580156141b657600080fd5b505af11580156141ca573d6000803e3d6000fd5b505050506040513d60208110156141e057600080fd5b810190808051906020019092919050505096505b60008712151561431d578780600101985050600860009054906101000a900473ffffffffffffffffffffffffffffffffffffffff1673ffffffffffffffffffffffffffffffffffffffff16633b7aecf7338c8a6040518463ffffffff167c0100000000000000000000000000000000000000000000000000000000028152600401808473ffffffffffffffffffffffffffffffffffffffff1673ffffffffffffffffffffffffffffffffffffffff16815260200183600019166000191681526020018281526020019350505050602060405180830381600087803b1580156142db57600080fd5b505af11580156142ef573d6000803e3d6000fd5b505050506040513d602081101561430557600080fd5b810190808051906020019092919050505096506141f4565b60009550600860009054906101000a900473ffffffffffffffffffffffffffffffffffffffff1673ffffffffffffffffffffffffffffffffffffffff16633b7aecf7338c60006040518463ffffffff167c0100000000000000000000000000000000000000000000000000000000028152600401808473ffffffffffffffffffffffffffffffffffffffff1673ffffffffffffffffffffffffffffffffffffffff16815260200183600019166000191681526020018281526020019350505050602060405180830381600087803b1580156143f757600080fd5b505af115801561440b573d6000803e3d6000fd5b505050506040513d602081101561442157600080fd5b81019080805190602001909291905050509650600094505b8785101561493457600860009054906101000a900473ffffffffffffffffffffffffffffffffffffffff1673ffffffffffffffffffffffffffffffffffffffff16636a34a4cb33896040518363ffffffff167c0100000000000000000000000000000000000000000000000000000000028152600401808373ffffffffffffffffffffffffffffffffffffffff1673ffffffffffffffffffffffffffffffffffffffff16815260200182815260200192505050602060405180830381600087803b15801561450657600080fd5b505af115801561451a573d6000803e3d6000fd5b505050506040513d602081101561453057600080fd5b81019080805190602001909291905050509350600092505b600660009054906101000a900473ffffffffffffffffffffffffffffffffffffffff1673ffffffffffffffffffffffffffffffffffffffff1663cb41501e6040518163ffffffff167c0100000000000000000000000000000000000000000000000000000000028152600401602060405180830381600087803b1580156145ce57600080fd5b505af11580156145e2573d6000803e3d6000fd5b505050506040513d60208110156145f857600080fd5b81019080805190602001909291905050508310156148155761461a8a856126d3565b915061462584613e93565b9050600860009054906101000a900473ffffffffffffffffffffffffffffffffffffffff1673ffffffffffffffffffffffffffffffffffffffff16633c8740d833898786866040518663ffffffff167c0100000000000000000000000000000000000000000000000000000000028152600401808673ffffffffffffffffffffffffffffffffffffffff1673ffffffffffffffffffffffffffffffffffffffff16815260200185815260200184815260200183815260200182815260200195505050505050602060405180830381600087803b15801561470457600080fd5b505af1158015614718573d6000803e3d6000fd5b505050506040513d602081101561472e57600080fd5b810190808051906020019092919050505086019550600660009054906101000a900473ffffffffffffffffffffffffffffffffffffffff1673ffffffffffffffffffffffffffffffffffffffff1663f733ad956040518163ffffffff167c0100000000000000000000000000000000000000000000000000000000028152600401602060405180830381600087803b1580156147c957600080fd5b505af11580156147dd573d6000803e3d6000fd5b505050506040513d60208110156147f357600080fd5b8101908080519060200190929190505050840193508280600101935050614548565b600860009054906101000a900473ffffffffffffffffffffffffffffffffffffffff1673ffffffffffffffffffffffffffffffffffffffff16633b7aecf7338c8a6040518463ffffffff167c0100000000000000000000000000000000000000000000000000000000028152600401808473ffffffffffffffffffffffffffffffffffffffff1673ffffffffffffffffffffffffffffffffffffffff16815260200183600019166000191681526020018281526020019350505050602060405180830381600087803b1580156148ea57600080fd5b505af11580156148fe573d6000803e3d6000fd5b505050506040513d602081101561491457600080fd5b810190808051906020019092919050505096508480600101955050614439565b8598505050505050505050919050565b600080600160008460001916600019168152602001908152602001600020600101541415151561497357600080fd5b600160008360001916600019168152602001908152602001600020600101549050919050565b6000600860009054906101000a900473ffffffffffffffffffffffffffffffffffffffff1673ffffffffffffffffffffffffffffffffffffffff1663d919eda384846040518363ffffffff167c010000000000000000000000000000000000000000000000000000000002815260040180836000191660001916815260200182815260200192505050602060405180830381600087803b158015614a3c57600080fd5b505af1158015614a50573d6000803e3d6000fd5b505050506040513d6020811015614a6657600080fd5b8101908080519060200190929190505050905092915050565b6000809054906101000a900473ffffffffffffffffffffffffffffffffffffffff1673ffffffffffffffffffffffffffffffffffffffff163373ffffffffffffffffffffffffffffffffffffffff16141515614ada57600080fd5b600082111515614ae957600080fd5b6000600860009054906101000a900473ffffffffffffffffffffffffffffffffffffffff1673ffffffffffffffffffffffffffffffffffffffff166361dcd7ab6040518163ffffffff167c0100000000000000000000000000000000000000000000000000000000028152600401602060405180830381600087803b158015614b7157600080fd5b505af1158015614b85573d6000803e3d6000fd5b505050506040513d6020811015614b9b57600080fd5b810190808051906020019092919050505014151515614bb957600080fd5b600860009054906101000a900473ffffffffffffffffffffffffffffffffffffffff1673ffffffffffffffffffffffffffffffffffffffff1663b8122eac858585856040518563ffffffff167c0100000000000000000000000000000000000000000000000000000000028152600401808573ffffffffffffffffffffffffffffffffffffffff1673ffffffffffffffffffffffffffffffffffffffff1681526020018460001916600019168152602001838152602001828152602001945050505050600060405180830381600087803b158015614c9657600080fd5b505af1158015614caa573d6000803e3d6000fd5b505050508373ffffffffffffffffffffffffffffffffffffffff1683600019167f73f9ddafe55f8b3fd3b932ed16d0c08f9a6406edb112b7e4c29620073b9957b78484604051808381526020018281526020019250505060405180910390a350505050565b60008060009054906101000a900473ffffffffffffffffffffffffffffffffffffffff1673ffffffffffffffffffffffffffffffffffffffff163373ffffffffffffffffffffffffffffffffffffffff16141515614d6c57600080fd5b60006001600086600019166000191681526020019081526020016000206001015414151515614d9a57600080fd5b6001600085600019166000191681526020019081526020016000209050818160020160008581526020019081526020016000208190555083600019167f591abb51ea6c697839be33fbd705609f83fa02d3112a5cc20595ca3b4592d6758484604051808381526020018281526020019250505060405180910390a250505050565b600080600060016000856000191660001916815260200190815260200160002060010154141515614e4b57600080fd5b600660009054906101000a900473ffffffffffffffffffffffffffffffffffffffff1673ffffffffffffffffffffffffffffffffffffffff16637ff8b20e6040518163ffffffff167c0100000000000000000000000000000000000000000000000000000000028152600401602060405180830381600087803b158015614ed157600080fd5b505af1158015614ee5573d6000803e3d6000fd5b505050506040513d6020811015614efb57600080fd5b8101908080519060200190929190505050915060408051908101604052803373ffffffffffffffffffffffffffffffffffffffff1681526020018381525060016000856000191660001916815260200190815260200160002060008201518160000160006101000a81548173ffffffffffffffffffffffffffffffffffffffff021916908373ffffffffffffffffffffffffffffffffffffffff16021790555060208201518160010155905050600283908060018154018082558091505090600182039060005260206000200160009091929091909150906000191690559050600760009054906101000a900473ffffffffffffffffffffffffffffffffffffffff1673ffffffffffffffffffffffffffffffffffffffff1663be44d6f984336040518363ffffffff167c01000000000000000000000000000000000000000000000000000000000281526004018083600019166000191681526020018273ffffffffffffffffffffffffffffffffffffffff1673ffffffffffffffffffffffffffffffffffffffff16815260200192505050600060405180830381600087803b1580156150a857600080fd5b505af11580156150bc573d6000803e3d6000fd5b50505050600760009054906101000a900473ffffffffffffffffffffffffffffffffffffffff1673ffffffffffffffffffffffffffffffffffffffff166394e6f5b933856040518363ffffffff167c0100000000000000000000000000000000000000000000000000000000028152600401808373ffffffffffffffffffffffffffffffffffffffff1673ffffffffffffffffffffffffffffffffffffffff168152602001826000191660001916815260200192505050602060405180830381600087803b15801561518d57600080fd5b505af11580156151a1573d6000803e3d6000fd5b505050506040513d60208110156151b757600080fd5b810190808051906020019092919050505015156151d057fe5b3373ffffffffffffffffffffffffffffffffffffffff1683600019167f6bffea36ac098b5dc12e6277eb4ebcc6aa8baa9c1f4534aa3594ab56844a1acb8484604051808381526020018281526020019250505060405180910390a3505050565b6000600860009054906101000a900473ffffffffffffffffffffffffffffffffffffffff1673ffffffffffffffffffffffffffffffffffffffff16633aa4afd18585856040518463ffffffff167c0100000000000000000000000000000000000000000000000000000000028152600401808473ffffffffffffffffffffffffffffffffffffffff1673ffffffffffffffffffffffffffffffffffffffff16815260200183600019166000191681526020018281526020019350505050602060405180830381600087803b15801561530757600080fd5b505af115801561531b573d6000803e3d6000fd5b505050506040513d602081101561533157600080fd5b810190808051906020019092919050505090509392505050565b6060600280548060200260200160405190810160405280929190818152602001828054801561539d57602002820191906000526020600020905b81546000191681526020019060010190808311615385575b5050505050905090565b60008082141515156153b857600080fd5b60036000838152602001908152602001600020549050919050565b600080600160008460001916600019168152602001908152602001600020600101541415151561540257600080fd5b60016000836000191660001916815260200190815260200160002060000160009054906101000a900473ffffffffffffffffffffffffffffffffffffffff169050919050565b6000809054906101000a900473ffffffffffffffffffffffffffffffffffffffff1673ffffffffffffffffffffffffffffffffffffffff163373ffffffffffffffffffffffffffffffffffffffff161415156154a357600080fd5b6154ac816155b6565b50565b6000809054906101000a900473ffffffffffffffffffffffffffffffffffffffff1673ffffffffffffffffffffffffffffffffffffffff163373ffffffffffffffffffffffffffffffffffffffff1614151561550a57600080fd5b6000831415151561551a57600080fd5b6000821415151561552a57600080fd5b6000811415151561553a57600080fd5b8160036000858152602001908152602001600020819055508060046000858152602001908152602001600020819055507f01e21700b429ba33287c59ef71ead1370b1049e0f9137ed26b930e45590cf8b383838360405180848152602001838152602001828152602001935050505060405180910390a1505050565b600073ffffffffffffffffffffffffffffffffffffffff168173ffffffffffffffffffffffffffffffffffffffff16141515156155f257600080fd5b8073ffffffffffffffffffffffffffffffffffffffff166000809054906101000a900473ffffffffffffffffffffffffffffffffffffffff1673ffffffffffffffffffffffffffffffffffffffff167f8be0079c531659141344cd1fd0a4f28419497f9722a3daafe3b4186f6b6457e060405160405180910390a3806000806101000a81548173ffffffffffffffffffffffffffffffffffffffff021916908373ffffffffffffffffffffffffffffffffffffffff160217905550505600a165627a7a7230582020785626ebd4c0743a99245acbe6dded1e83a77c47f66b97c9fa79dc81f0302e0029",
  "source": "pragma solidity ^0.4.24;\n\nimport \"./Deck.sol\";\nimport \"./Utility.sol\";\nimport \"./AuthorPool.sol\";\nimport \"./CuratorPool.sol\";\nimport \"openzeppelin-solidity/contracts/ownership/Ownable.sol\";\n\ncontract DocumentReg is Ownable {\n\n  event _InitializeDocumentReg(uint timestamp, address token);\n  event _RegisterNewDocument(bytes32 indexed docId, uint timestamp, address indexed applicant, uint count);\n  event _UpdateDocument(bytes32 indexed docId, uint timestamp, address indexed applicant);\n  event _ConfirmPageView(bytes32 indexed docId, uint timestamp, uint pageView);\n  event _ConfirmTotalPageView(uint timestamp, uint pageView, uint pageViewSquare);\n  event _VoteOnDocument(bytes32 indexed docId, uint deposit, address indexed applicant);\n  event _UpdateVoteOnDocument(bytes32 indexed docId, uint deposit, address indexed applicant, uint timestamp);\n  event _ClaimAuthorReward(bytes32 indexed docId, uint reward, address indexed applicant);\n  event _ClaimCuratorReward(bytes32 indexed docId, uint reward, address indexed applicant);\n  //event _DetermineReward(bytes32 indexed docId, uint timestamp, uint pageView, uint totalPageView, uint dailyReward);\n\n  struct Document {\n    address author;\n    uint createTime;\n    mapping (uint => uint) pageViews; // date => page views\n  }\n\n  // maps document id to associated document data\n  mapping (bytes32 => Document) internal map;\n\n  // key list for iteration\n  bytes32[] private docList;\n\n  // store total page view square for reward calculation\n  //  : timestamp(yyyy-mm-dd) => daily total page view square\n  mapping (uint => uint) private totalPageView;\n  mapping (uint => uint) private totalPageViewSquare;\n\n  // private variables\n  Deck private token;\n  Utility private util;\n  AuthorPool private authorPool;\n  CuratorPool private curatorPool;\n\n  // public variables\n  uint public createTime;\n\n  function init(address _token, address _author, address _curator, address _utility) public\n    onlyOwner()\n  {\n\n    require(_token != 0 && address(token) == 0);\n    require(_author != 0 && address(authorPool) == 0);\n    require(_curator != 0 && address(curatorPool) == 0);\n    require(_utility != 0 && address(util) == 0);\n\n    token = Deck(_token);\n    util = Utility(_utility);\n\n    // init author pool\n    authorPool = AuthorPool(_author);\n    authorPool.init(token, util);\n\n    // init curator pool\n    curatorPool = CuratorPool(_curator);\n    curatorPool.init(token, util);\n\n    createTime = util.getTimeMillis();\n    emit _InitializeDocumentReg(createTime, _token);\n  }\n\n  // -------------------------------\n  // Document Registry Functions\n  // -------------------------------\n\n  // register a new document\n  function register(bytes32 _docId) public {\n\n    require(map[_docId].createTime == 0); // register once\n\n    uint tMillis = util.getDateMillis();\n\n    // adding to document registry\n    map[_docId] = Document(msg.sender, tMillis);\n    uint index = docList.push(_docId);\n\n    // creating user document mapping\n    authorPool.registerUserDocument(_docId, msg.sender);\n    assert(authorPool.containsUserDocument(msg.sender, _docId));\n\n    emit _RegisterNewDocument(_docId, tMillis, msg.sender, index);\n  }\n\n  function update(address _addr, bytes32 _docId, uint _timestamp) public\n    onlyOwner()\n  {\n    // updating to document registry\n    if (map[_docId].createTime == 0) {\n      docList.push(_docId);\n    }\n    map[_docId] = Document(_addr, _timestamp);\n\n    // creating user document mapping\n    authorPool.updateUserDocument(_docId, _addr, _timestamp);\n\n    emit _UpdateDocument(_docId, _timestamp, _addr);\n  }\n\n  function contains(bytes32 _docId) public view returns (bool) {\n    return map[_docId].createTime != 0;\n  }\n\n  function getAuthorByKey(bytes32 _docId) public view returns (address) {\n    require(map[_docId].createTime != 0);\n    return map[_docId].author;\n  }\n\n  function getCreateTimeByKey(bytes32 _docId) public view returns (uint) {\n    require(map[_docId].createTime != 0);\n    return map[_docId].createTime;\n  }\n\n  function count() public view returns (uint) {\n    return uint(docList.length);\n  }\n\n  // document list for iteration\n  function getDocuments() public view returns (bytes32[]) {\n    return docList;\n  }\n\n  // -------------------------------\n  // Total Page View Square Functions\n  // -------------------------------\n\n  function confirmTotalPageView(uint _date, uint _totalPageView, uint _totalPageViewSquare) public\n    onlyOwner()\n  {\n    require(_date != 0);\n    require(_totalPageView != 0);\n    require(_totalPageViewSquare != 0);\n    totalPageView[_date] = _totalPageView;\n    totalPageViewSquare[_date] = _totalPageViewSquare;\n    emit _ConfirmTotalPageView(_date, _totalPageView, _totalPageViewSquare);\n  }\n\n  function getTotalPageView(uint _date) public view returns (uint) {\n    require(_date != 0);\n    return totalPageView[_date];\n  }\n\n  function getTotalPageViewSquare(uint _date) public view returns (uint) {\n    require(_date != 0);\n    return totalPageViewSquare[_date];\n  }\n\n  // -------------------------------\n  // Daily Page View Functions\n  // -------------------------------\n\n  function confirmPageView(bytes32 _docId, uint _date, uint _pageView) public\n    onlyOwner()\n  {\n    require(map[_docId].createTime != 0);\n    Document storage doc = map[_docId];\n    doc.pageViews[_date] = _pageView;\n    emit _ConfirmPageView(_docId, _date, _pageView);\n  }\n\n  function getPageView(bytes32 _docId, uint _date) public view returns (uint) {\n    require(map[_docId].createTime != 0);\n    return map[_docId].pageViews[_date];\n  }\n\n  // -------------------------------\n  // Determine author reward after last claim\n  // -------------------------------\n\n  function determineAuthorReward(address _addr, bytes32 _docId) public view returns (uint) {\n\n    require(_addr != 0);\n    require(authorPool.createTime() != 0);\n    int idx = authorPool.getUserDocumentIndex(_addr, _docId);\n    if (idx < 0) {\n      return uint(0);\n    }\n\n    uint sumReward = 0;\n    uint claimDate = authorPool.getUserDocumentLastClaimedDate(_addr, idx);\n    while (claimDate < util.getDateMillis()) {\n      if (claimDate == 0) {\n        claimDate = authorPool.getUserDocumentListedDate(_addr, idx);\n      }\n      //assert(claimDate <= util.getDateMillis());\n      uint tpv = getTotalPageView(claimDate);\n      uint pv = getPageView(_docId, claimDate);\n      sumReward += authorPool.determineReward(pv, tpv);\n\n      uint nextDate = claimDate + util.getOneDayMillis();\n      assert(claimDate < nextDate);\n      claimDate = nextDate;\n      //emit _DetermineReward(_docId, lastClaimedDate, pv, tpv, dailyRewardPool);\n    }\n    return sumReward;\n  }\n\n  function claimAuthorReward(bytes32 _docId) public {\n    require(msg.sender != 0);\n    require(authorPool.createTime() != 0);\n    int idx = authorPool.getUserDocumentIndex(msg.sender, _docId);\n    if (idx < 0) {\n      return;\n    }\n\n    emit _ClaimAuthorReward(_docId, uint(idx), msg.sender);\n    uint claimDate = authorPool.getUserDocumentLastClaimedDate(msg.sender, idx);\n    emit _ClaimAuthorReward(_docId, claimDate, msg.sender);\n    uint dateMillis = util.getDateMillis();\n\n    uint sumReward = 0;\n    while (claimDate < dateMillis) {\n      if (claimDate == 0) {\n        claimDate = authorPool.getUserDocumentListedDate(msg.sender, idx);\n      }\n      assert(claimDate <= dateMillis);\n\n      uint tpv = getTotalPageView(claimDate);\n      uint pv = getPageView(_docId, claimDate);\n      sumReward += authorPool.determineReward(pv, tpv);\n\n      uint nextDate = claimDate + util.getOneDayMillis();\n      assert(nextDate > claimDate);\n      claimDate = nextDate;\n    }\n\n    token.transfer(msg.sender, sumReward);\n    emit _ClaimAuthorReward(_docId, sumReward, msg.sender);\n  }\n\n  // -------------------------------\n  // Estimate curator reward after last claim\n  // -------------------------------\n\n  function estimateCuratorReward(address _addr, bytes32 _docId) public view returns (uint) {\n\n    require(_addr != 0);\n    require(curatorPool.createTime() != 0);\n\n    uint numVotes = curatorPool.getVoteCount(_addr);\n    if (numVotes == 0) {\n      return uint(0);\n    }\n\n    uint reward = 0;\n    for (uint i=0; i<numVotes; i++) {\n      if (curatorPool.getDocId(_addr, i) == _docId\n       && curatorPool.getWithdraw(_addr, i) == 0) {\n        uint dt = curatorPool.getStartDate(_addr, i);\n        for (uint j=0; j<util.getVoteDepositDays(); j++) {\n          uint pv = getPageView(_docId, dt);\n          uint tpvs = getTotalPageViewSquare(dt);\n          reward += curatorPool.determineReward(_addr, i, dt, pv, tpvs);\n          dt += util.getOneDayMillis();\n        }\n      }\n    }\n    return reward;\n  }\n\n  // -------------------------------\n  // Determine curator reward after last claim\n  // -------------------------------\n  function determineCuratorReward(bytes32 _docId) public view returns (uint) {\n\n    // validation check\n    require(curatorPool.createTime() != 0);\n\n    uint numVotes = 0;\n    int idx = curatorPool.indexOfNextVoteForClaim(msg.sender, _docId, uint(0));\n    while(idx >= 0)\n    {\n      numVotes++;\n      idx = curatorPool.indexOfNextVoteForClaim(msg.sender, _docId, uint(idx));\n    }\n\n    uint reward = 0;\n    idx = curatorPool.indexOfNextVoteForClaim(msg.sender, _docId, uint(0));\n    for(uint i=0; i<numVotes; i++)\n    {\n      uint dt = curatorPool.getStartDate(msg.sender, uint(idx));\n      for (uint j=0; j<util.getVoteDepositDays(); j++) {\n        uint pv = getPageView(_docId, dt);\n        uint tpvs = getTotalPageViewSquare(dt);\n        reward += curatorPool.determineReward(msg.sender, uint(idx), dt, pv, tpvs);\n        dt += util.getOneDayMillis();\n      }\n      idx = curatorPool.indexOfNextVoteForClaim(msg.sender, _docId, uint(idx));\n    }\n\n    return reward;\n  }\n\n  function claimCuratorReward(bytes32 _docId) public {\n\n    // validation check\n    require(curatorPool.createTime() != 0);\n\n    //       vote    \n    // 1.    vote  \n    //  a.  docuemnt  vote \n    //  b.   Vote  \n    //  c.  util.getVoteDepositDays()   ( )\n    uint numVotes = 0;\n    int idx = curatorPool.indexOfNextVoteForClaim(msg.sender, _docId, uint(0));\n    while(idx >= 0)\n    {\n      numVotes++;\n      idx = curatorPool.indexOfNextVoteForClaim(msg.sender, _docId, uint(idx));\n    }\n    if (numVotes == 0) {\n      return;\n    }\n\n    // 2. 1      \n    //  a.    18 decimals \n    //  b.  util.getVoteDepositDays() page view     \n    //  c.   deposit    \n    uint reward = 0;\n    uint[] memory voteList = new uint[](numVotes);\n    uint[] memory deltaList = new uint[](numVotes);\n    idx = curatorPool.indexOfNextVoteForClaim(msg.sender, _docId, uint(0));\n    for(uint i=0; i<numVotes; i++)\n    {\n      uint delta = 0;\n      uint dt = curatorPool.getStartDate(msg.sender, uint(idx));\n      for (uint j=0; j<util.getVoteDepositDays(); j++) {\n        uint pv = getPageView(_docId, dt);\n        uint tpvs = getTotalPageViewSquare(dt);\n        delta += curatorPool.determineReward(msg.sender, uint(idx), dt, pv, tpvs);\n        dt += util.getOneDayMillis();\n      }\n      reward += delta;\n      reward += curatorPool.getDeposit(msg.sender, uint(idx));\n      voteList[i] = uint(idx);\n      deltaList[i] = delta;\n      idx = curatorPool.indexOfNextVoteForClaim(msg.sender, _docId, uint(idx));\n    }\n\n    // 3.   document registry contract   \n    token.transfer(msg.sender, reward);\n\n    // 4.   vote withdraw  \n    for (i=0; i<voteList.length; i++) {\n      curatorPool.withdraw(msg.sender, voteList[i], deltaList[i]);\n    }\n\n    emit _ClaimCuratorReward(_docId, reward, msg.sender);\n  }\n\n  // -------------------------------\n  // Voting for curators\n  // -------------------------------\n  function voteOnDocument(bytes32 _docId, uint _deposit) public {\n\n    require(_deposit > 0);\n    require(curatorPool.createTime() != 0);\n\n    token.transferFrom(msg.sender, address(this), _deposit);\n    curatorPool.addVote(msg.sender, _docId, _deposit);\n\n    emit _VoteOnDocument(_docId, _deposit, msg.sender);\n  }\n\n  function updateVoteOnDocument(address _addr, bytes32 _docId, uint _deposit, uint _timestamp) public\n    onlyOwner()\n  {\n    require(_deposit > 0);\n    require(curatorPool.createTime() != 0);\n\n    curatorPool.updateVote(_addr, _docId, _deposit, _timestamp);\n    emit _UpdateVoteOnDocument(_docId, _deposit, _addr, _timestamp);\n  }\n\n  // -------------------------------\n  // Query functions\n  // -------------------------------\n\n  function getDepositOnUserDocument(address _addr, bytes32 _docId, uint _timestamp) public view returns (uint) {\n    return curatorPool.getDepositByAddr(_addr, _docId, _timestamp);\n  }\n\n  function getDepositOnDocument(bytes32 _docId, uint _timestamp) public view returns (uint) {\n    return curatorPool.getDepositByDoc(_docId, _timestamp);\n  }\n\n  function getWithdrawOnUserDocument(address _addr, bytes32 _docId, uint _timestamp) public view returns (uint) {\n    return curatorPool.getWithdrawByAddr(_addr, _docId, _timestamp);\n  }\n\n  function getWithdrawOnDocument(bytes32 _docId, uint _timestamp) public view returns (uint) {\n    return curatorPool.getWithdrawByDoc(_docId, _timestamp);\n  }\n\n}\n",
  "sourcePath": "/Users/centroine/Documents/github/bluebottle/contracts/DocumentReg.sol",
  "compiler": {
    "name": "solc",
    "version": "0.4.24+commit.e67f0147.Emscripten.clang"
  },
  "schemaVersion": "2.0.1",
  "updatedAt": "2018-10-22T03:47:26.160Z"
}